{"abi":[{"type":"constructor","inputs":[{"name":"_chainId","type":"uint256","internalType":"uint256"},{"name":"_counter","type":"uint256","internalType":"uint256"}],"stateMutability":"nonpayable"},{"type":"function","name":"chainId","inputs":[],"outputs":[{"name":"","type":"uint256","internalType":"uint256"}],"stateMutability":"view"},{"type":"function","name":"counter","inputs":[],"outputs":[{"name":"","type":"uint256","internalType":"uint256"}],"stateMutability":"view"},{"type":"function","name":"incrementCounter","inputs":[],"outputs":[],"stateMutability":"nonpayable"}],"bytecode":{"object":"0x608060405234801561001057600080fd5b5060405161014b38038061014b83398101604081905261002f9161003d565b600091909155600155610061565b6000806040838503121561005057600080fd5b505080516020909101519092909150565b60dc8061006f6000396000f3fe6080604052348015600f57600080fd5b5060043610603c5760003560e01c80635b34b96614604157806361bc221a1460495780639a8a0592146063575b600080fd5b6047606b565b005b605160015481565b60405190815260200160405180910390f35b605160005481565b600180549060006079836080565b9190505550565b600060018201609f57634e487b7160e01b600052601160045260246000fd5b506001019056fea264697066735822122019a0732a3a5f1c0a93b89df134e900421283010e916cb2dbcc77cf5d2b04193664736f6c63430008170033","linkReferences":{}},"methodIdentifiers":{"chainId()":"9a8a0592","counter()":"61bc221a","incrementCounter()":"5b34b966"},"id":21}